{"abi":[{"type":"function","name":"createProfile","inputs":[{"name":"_username","type":"string","internalType":"string"}],"outputs":[],"stateMutability":"nonpayable"},{"type":"function","name":"follow","inputs":[{"name":"_user","type":"address","internalType":"address"}],"outputs":[],"stateMutability":"nonpayable"},{"type":"function","name":"incrementPostCount","inputs":[{"name":"_user","type":"address","internalType":"address"}],"outputs":[{"name":"","type":"uint256","internalType":"uint256"}],"stateMutability":"nonpayable"},{"type":"function","name":"isFollowing","inputs":[{"name":"","type":"address","internalType":"address"},{"name":"","type":"address","internalType":"address"}],"outputs":[{"name":"","type":"bool","internalType":"bool"}],"stateMutability":"view"},{"type":"function","name":"profiles","inputs":[{"name":"","type":"address","internalType":"address"}],"outputs":[{"name":"username","type":"string","internalType":"string"},{"name":"postCount","type":"uint256","internalType":"uint256"},{"name":"exists","type":"bool","internalType":"bool"}],"stateMutability":"view"},{"type":"function","name":"unfollow","inputs":[{"name":"_user","type":"address","internalType":"address"}],"outputs":[],"stateMutability":"nonpayable"},{"type":"event","name":"Followed","inputs":[{"name":"follower","type":"address","indexed":true,"internalType":"address"},{"name":"followee","type":"address","indexed":true,"internalType":"address"}],"anonymous":false},{"type":"event","name":"ProfileCreated","inputs":[{"name":"user","type":"address","indexed":true,"internalType":"address"},{"name":"username","type":"string","indexed":false,"internalType":"string"}],"anonymous":false},{"type":"event","name":"Unfollowed","inputs":[{"name":"follower","type":"address","indexed":true,"internalType":"address"},{"name":"followee","type":"address","indexed":true,"internalType":"address"}],"anonymous":false}],"bytecode":{"object":"0x6080604052348015600e575f5ffd5b506113cc8061001c5f395ff3fe608060405234801561000f575f5ffd5b5060043610610060575f3560e01c8063015a4ead1461006457806311002fb314610080578063334c3f0e146100b05780634dbf27cc146100cc57806399ec3a42146100e8578063bbe1562714610118575b5f5ffd5b61007e60048036038101906100799190610a57565b61014a565b005b61009a60048036038101906100959190610a57565b6102fa565b6040516100a79190610a9a565b60405180910390f35b6100ca60048036038101906100c59190610b14565b610421565b005b6100e660048036038101906100e19190610a57565b61066a565b005b61010260048036038101906100fd9190610b5f565b610914565b60405161010f9190610bb7565b60405180910390f35b610132600480360381019061012d9190610a57565b61093e565b60405161014193929190610c40565b60405180910390f35b60015f3373ffffffffffffffffffffffffffffffffffffffff1673ffffffffffffffffffffffffffffffffffffffff1681526020019081526020015f205f8273ffffffffffffffffffffffffffffffffffffffff1673ffffffffffffffffffffffffffffffffffffffff1681526020019081526020015f205f9054906101000a900460ff1661020e576040517f08c379a000000000000000000000000000000000000000000000000000000000815260040161020590610cc6565b60405180910390fd5b5f60015f3373ffffffffffffffffffffffffffffffffffffffff1673ffffffffffffffffffffffffffffffffffffffff1681526020019081526020015f205f8373ffffffffffffffffffffffffffffffffffffffff1673ffffffffffffffffffffffffffffffffffffffff1681526020019081526020015f205f6101000a81548160ff0219169083151502179055508073ffffffffffffffffffffffffffffffffffffffff163373ffffffffffffffffffffffffffffffffffffffff167f25b48012798806863072289354ed0b3849b73152482d9c6694e5cbb35f38d5e360405160405180910390a350565b5f5f5f8373ffffffffffffffffffffffffffffffffffffffff1673ffffffffffffffffffffffffffffffffffffffff1681526020019081526020015f206002015f9054906101000a900460ff16610386576040517f08c379a000000000000000000000000000000000000000000000000000000000815260040161037d90610d2e565b60405180910390fd5b5f5f8373ffffffffffffffffffffffffffffffffffffffff1673ffffffffffffffffffffffffffffffffffffffff1681526020019081526020015f206001015f8154809291906103d590610d79565b91905055505f5f8373ffffffffffffffffffffffffffffffffffffffff1673ffffffffffffffffffffffffffffffffffffffff1681526020019081526020015f20600101549050919050565b5f5f3373ffffffffffffffffffffffffffffffffffffffff1673ffffffffffffffffffffffffffffffffffffffff1681526020019081526020015f206002015f9054906101000a900460ff16156104ad576040517f08c379a00000000000000000000000000000000000000000000000000000000081526004016104a490610e0a565b60405180910390fd5b5f82829050116104f2576040517f08c379a00000000000000000000000000000000000000000000000000000000081526004016104e990610e72565b60405180910390fd5b6032828290501115610539576040517f08c379a000000000000000000000000000000000000000000000000000000000815260040161053090610eda565b60405180910390fd5b604051806060016040528083838080601f0160208091040260200160405190810160405280939291908181526020018383808284375f81840152601f19601f8201169050808301925050505050505081526020015f8152602001600115158152505f5f3373ffffffffffffffffffffffffffffffffffffffff1673ffffffffffffffffffffffffffffffffffffffff1681526020019081526020015f205f820151815f0190816105e99190611133565b50602082015181600101556040820151816002015f6101000a81548160ff0219169083151502179055509050503373ffffffffffffffffffffffffffffffffffffffff167fbafddecbd1dec1c1afb76d693f1de16901f521bdf29a02438e3e6806c0b8d948838360405161065e92919061123c565b60405180910390a25050565b5f5f8273ffffffffffffffffffffffffffffffffffffffff1673ffffffffffffffffffffffffffffffffffffffff1681526020019081526020015f206002015f9054906101000a900460ff166106f5576040517f08c379a00000000000000000000000000000000000000000000000000000000081526004016106ec906112a8565b60405180910390fd5b3373ffffffffffffffffffffffffffffffffffffffff168173ffffffffffffffffffffffffffffffffffffffff1603610763576040517f08c379a000000000000000000000000000000000000000000000000000000000815260040161075a90611310565b60405180910390fd5b60015f3373ffffffffffffffffffffffffffffffffffffffff1673ffffffffffffffffffffffffffffffffffffffff1681526020019081526020015f205f8273ffffffffffffffffffffffffffffffffffffffff1673ffffffffffffffffffffffffffffffffffffffff1681526020019081526020015f205f9054906101000a900460ff1615610828576040517f08c379a000000000000000000000000000000000000000000000000000000000815260040161081f90611378565b60405180910390fd5b6001805f3373ffffffffffffffffffffffffffffffffffffffff1673ffffffffffffffffffffffffffffffffffffffff1681526020019081526020015f205f8373ffffffffffffffffffffffffffffffffffffffff1673ffffffffffffffffffffffffffffffffffffffff1681526020019081526020015f205f6101000a81548160ff0219169083151502179055508073ffffffffffffffffffffffffffffffffffffffff163373ffffffffffffffffffffffffffffffffffffffff167f6178e95c138f06036cdc07a49ed6a3d23008969fa143baeceb037ebae22e8d1460405160405180910390a350565b6001602052815f5260405f20602052805f5260405f205f915091509054906101000a900460ff1681565b5f602052805f5260405f205f91509050805f01805461095c90610f52565b80601f016020809104026020016040519081016040528092919081815260200182805461098890610f52565b80156109d35780601f106109aa576101008083540402835291602001916109d3565b820191905f5260205f20905b8154815290600101906020018083116109b657829003601f168201915b505050505090806001015490806002015f9054906101000a900460ff16905083565b5f5ffd5b5f5ffd5b5f73ffffffffffffffffffffffffffffffffffffffff82169050919050565b5f610a26826109fd565b9050919050565b610a3681610a1c565b8114610a40575f5ffd5b50565b5f81359050610a5181610a2d565b92915050565b5f60208284031215610a6c57610a6b6109f5565b5b5f610a7984828501610a43565b91505092915050565b5f819050919050565b610a9481610a82565b82525050565b5f602082019050610aad5f830184610a8b565b92915050565b5f5ffd5b5f5ffd5b5f5ffd5b5f5f83601f840112610ad457610ad3610ab3565b5b8235905067ffffffffffffffff811115610af157610af0610ab7565b5b602083019150836001820283011115610b0d57610b0c610abb565b5b9250929050565b5f5f60208385031215610b2a57610b296109f5565b5b5f83013567ffffffffffffffff811115610b4757610b466109f9565b5b610b5385828601610abf565b92509250509250929050565b5f5f60408385031215610b7557610b746109f5565b5b5f610b8285828601610a43565b9250506020610b9385828601610a43565b9150509250929050565b5f8115159050919050565b610bb181610b9d565b82525050565b5f602082019050610bca5f830184610ba8565b92915050565b5f81519050919050565b5f82825260208201905092915050565b8281835e5f83830152505050565b5f601f19601f8301169050919050565b5f610c1282610bd0565b610c1c8185610bda565b9350610c2c818560208601610bea565b610c3581610bf8565b840191505092915050565b5f6060820190508181035f830152610c588186610c08565b9050610c676020830185610a8b565b610c746040830184610ba8565b949350505050565b7f4e6f7420666f6c6c6f77696e67000000000000000000000000000000000000005f82015250565b5f610cb0600d83610bda565b9150610cbb82610c7c565b602082019050919050565b5f6020820190508181035f830152610cdd81610ca4565b9050919050565b7f50726f66696c6520646f6573206e6f74206578697374000000000000000000005f82015250565b5f610d18601683610bda565b9150610d2382610ce4565b602082019050919050565b5f6020820190508181035f830152610d4581610d0c565b9050919050565b7f4e487b71000000000000000000000000000000000000000000000000000000005f52601160045260245ffd5b5f610d8382610a82565b91507fffffffffffffffffffffffffffffffffffffffffffffffffffffffffffffffff8203610db557610db4610d4c565b5b600182019050919050565b7f50726f66696c6520616c726561647920657869737473000000000000000000005f82015250565b5f610df4601683610bda565b9150610dff82610dc0565b602082019050919050565b5f6020820190508181035f830152610e2181610de8565b9050919050565b7f557365726e616d652072657175697265640000000000000000000000000000005f82015250565b5f610e5c601183610bda565b9150610e6782610e28565b602082019050919050565b5f6020820190508181035f830152610e8981610e50565b9050919050565b7f557365726e616d6520746f6f206c6f6e670000000000000000000000000000005f82015250565b5f610ec4601183610bda565b9150610ecf82610e90565b602082019050919050565b5f6020820190508181035f830152610ef181610eb8565b9050919050565b7f4e487b71000000000000000000000000000000000000000000000000000000005f52604160045260245ffd5b7f4e487b71000000000000000000000000000000000000000000000000000000005f52602260045260245ffd5b5f6002820490506001821680610f6957607f821691505b602082108103610f7c57610f7b610f25565b5b50919050565b5f819050815f5260205f209050919050565b5f6020601f8301049050919050565b5f82821b905092915050565b5f60088302610fde7fffffffffffffffffffffffffffffffffffffffffffffffffffffffffffffffff82610fa3565b610fe88683610fa3565b95508019841693508086168417925050509392505050565b5f819050919050565b5f61102361101e61101984610a82565b611000565b610a82565b9050919050565b5f819050919050565b61103c83611009565b6110506110488261102a565b848454610faf565b825550505050565b5f5f905090565b611067611058565b611072818484611033565b505050565b5f5b828110156110985761108d5f82840161105f565b600181019050611079565b505050565b601f8211156110eb57828211156110ea576110b781610f82565b6110c083610f94565b6110c985610f94565b60208610156110d6575f90505b8083016110e582840382611077565b505050505b5b505050565b5f82821c905092915050565b5f61110b5f19846008026110f0565b1980831691505092915050565b5f61112383836110fc565b9150826002028217905092915050565b61113c82610bd0565b67ffffffffffffffff81111561115557611154610ef8565b5b61115f8254610f52565b61116a82828561109d565b5f60209050601f83116001811461119b575f8415611189578287015190505b6111938582611118565b8655506111fa565b601f1984166111a986610f82565b5f5b828110156111d0578489015182556001820191506020850194506020810190506111ab565b868310156111ed57848901516111e9601f8916826110fc565b8355505b6001600288020188555050505b505050505050565b828183375f83830152505050565b5f61121b8385610bda565b9350611228838584611202565b61123183610bf8565b840190509392505050565b5f6020820190508181035f830152611255818486611210565b90509392505050565b7f5573657220646f6573206e6f74206578697374000000000000000000000000005f82015250565b5f611292601383610bda565b915061129d8261125e565b602082019050919050565b5f6020820190508181035f8301526112bf81611286565b9050919050565b7f43616e6e6f7420666f6c6c6f7720796f757273656c66000000000000000000005f82015250565b5f6112fa601683610bda565b9150611305826112c6565b602082019050919050565b5f6020820190508181035f830152611327816112ee565b9050919050565b7f416c726561647920666f6c6c6f77696e670000000000000000000000000000005f82015250565b5f611362601183610bda565b915061136d8261132e565b602082019050919050565b5f6020820190508181035f83015261138f81611356565b905091905056fea2646970667358221220e0dcf81e02b4b7ee40bc918a7166a0e1d932b3b57be13b813559625837e6043e64736f6c63430008210033","linkReferences":{}},"methodIdentifiers":{"createProfile(string)":"334c3f0e","follow(address)":"4dbf27cc","incrementPostCount(address)":"11002fb3","isFollowing(address,address)":"99ec3a42","profiles(address)":"bbe15627","unfollow(address)":"015a4ead"},"id":21}