{"abi":[{"type":"constructor","inputs":[{"name":"_profileRegistry","type":"address","internalType":"address"}],"stateMutability":"nonpayable"},{"type":"function","name":"likePost","inputs":[{"name":"_author","type":"address","internalType":"address"},{"name":"_postId","type":"uint256","internalType":"uint256"}],"outputs":[],"stateMutability":"nonpayable"},{"type":"function","name":"postMessage","inputs":[{"name":"_content","type":"string","internalType":"string"}],"outputs":[],"stateMutability":"nonpayable"},{"type":"function","name":"posts","inputs":[{"name":"","type":"address","internalType":"address"},{"name":"","type":"uint256","internalType":"uint256"}],"outputs":[{"name":"author","type":"address","internalType":"address"},{"name":"content","type":"string","internalType":"string"},{"name":"likeCount","type":"uint256","internalType":"uint256"},{"name":"timestamp","type":"uint256","internalType":"uint256"},{"name":"exists","type":"bool","internalType":"bool"}],"stateMutability":"view"},{"type":"function","name":"profileRegistry","inputs":[],"outputs":[{"name":"","type":"address","internalType":"contract ProfileRegistry"}],"stateMutability":"view"},{"type":"event","name":"PostCreated","inputs":[{"name":"author","type":"address","indexed":true,"internalType":"address"},{"name":"postId","type":"uint256","indexed":true,"internalType":"uint256"},{"name":"content","type":"string","indexed":false,"internalType":"string"},{"name":"timestamp","type":"uint256","indexed":false,"internalType":"uint256"}],"anonymous":false},{"type":"event","name":"PostLiked","inputs":[{"name":"author","type":"address","indexed":true,"internalType":"address"},{"name":"postId","type":"uint256","indexed":true,"internalType":"uint256"},{"name":"liker","type":"address","indexed":true,"internalType":"address"}],"anonymous":false}],"bytecode":{"object":"0x608060405234801561000f575f5ffd5b50604051610fcc380380610fcc833981810160405281019061003191906100d4565b805f5f6101000a81548173ffffffffffffffffffffffffffffffffffffffff021916908373ffffffffffffffffffffffffffffffffffffffff160217905550506100ff565b5f5ffd5b5f73ffffffffffffffffffffffffffffffffffffffff82169050919050565b5f6100a38261007a565b9050919050565b6100b381610099565b81146100bd575f5ffd5b50565b5f815190506100ce816100aa565b92915050565b5f602082840312156100e9576100e8610076565b5b5f6100f6848285016100c0565b91505092915050565b610ec08061010c5f395ff3fe608060405234801561000f575f5ffd5b506004361061004a575f3560e01c8063483515291461004e5780635c538df31461006a5780636630f88f1461009e578063c9bb1a48146100ba575b5f5ffd5b610068600480360381019061006391906106bd565b6100d8565b005b610084600480360381019061007f91906106bd565b610236565b6040516100959594939291906107a3565b60405180910390f35b6100b860048036038101906100b3919061085c565b610324565b005b6100c2610604565b6040516100cf9190610902565b60405180910390f35b60015f8373ffffffffffffffffffffffffffffffffffffffff1673ffffffffffffffffffffffffffffffffffffffff1681526020019081526020015f205f8281526020019081526020015f206004015f9054906101000a900460ff16610173576040517f08c379a000000000000000000000000000000000000000000000000000000000815260040161016a90610965565b60405180910390fd5b60015f8373ffffffffffffffffffffffffffffffffffffffff1673ffffffffffffffffffffffffffffffffffffffff1681526020019081526020015f205f8281526020019081526020015f206002015f8154809291906101d2906109b0565b91905055503373ffffffffffffffffffffffffffffffffffffffff16818373ffffffffffffffffffffffffffffffffffffffff167f7c2461a1867e0394c6be4755e099bd5674d95b6c11e9a3fabcf825985873cba060405160405180910390a45050565b6001602052815f5260405f20602052805f5260405f205f9150915050805f015f9054906101000a900473ffffffffffffffffffffffffffffffffffffffff169080600101805461028590610a24565b80601f01602080910402602001604051908101604052809291908181526020018280546102b190610a24565b80156102fc5780601f106102d3576101008083540402835291602001916102fc565b820191905f5260205f20905b8154815290600101906020018083116102df57829003601f168201915b505050505090806002015490806003015490806004015f9054906101000a900460ff16905085565b5f8282905011610369576040517f08c379a000000000000000000000000000000000000000000000000000000000815260040161036090610a9e565b60405180910390fd5b6101188282905011156103b1576040517f08c379a00000000000000000000000000000000000000000000000000000000081526004016103a890610b06565b60405180910390fd5b5f5f5f9054906101000a900473ffffffffffffffffffffffffffffffffffffffff1673ffffffffffffffffffffffffffffffffffffffff166311002fb3336040518263ffffffff1660e01b815260040161040b9190610b24565b6020604051808303815f875af1158015610427573d5f5f3e3d5ffd5b505050506040513d601f19601f8201168201806040525081019061044b9190610b51565b90506040518060a001604052803373ffffffffffffffffffffffffffffffffffffffff16815260200184848080601f0160208091040260200160405190810160405280939291908181526020018383808284375f81840152601f19601f8201169050808301925050505050505081526020015f81526020014281526020016001151581525060015f3373ffffffffffffffffffffffffffffffffffffffff1673ffffffffffffffffffffffffffffffffffffffff1681526020019081526020015f205f8381526020019081526020015f205f820151815f015f6101000a81548173ffffffffffffffffffffffffffffffffffffffff021916908373ffffffffffffffffffffffffffffffffffffffff16021790555060208201518160010190816105759190610d51565b5060408201518160020155606082015181600301556080820151816004015f6101000a81548160ff021916908315150217905550905050803373ffffffffffffffffffffffffffffffffffffffff167f59141d2ba0498d14f8ec9adb677d17652b83c50c9ed1a54b5277e618532e1cc48585426040516105f793929190610e5a565b60405180910390a3505050565b5f5f9054906101000a900473ffffffffffffffffffffffffffffffffffffffff1681565b5f5ffd5b5f5ffd5b5f73ffffffffffffffffffffffffffffffffffffffff82169050919050565b5f61065982610630565b9050919050565b6106698161064f565b8114610673575f5ffd5b50565b5f8135905061068481610660565b92915050565b5f819050919050565b61069c8161068a565b81146106a6575f5ffd5b50565b5f813590506106b781610693565b92915050565b5f5f604083850312156106d3576106d2610628565b5b5f6106e085828601610676565b92505060206106f1858286016106a9565b9150509250929050565b6107048161064f565b82525050565b5f81519050919050565b5f82825260208201905092915050565b8281835e5f83830152505050565b5f601f19601f8301169050919050565b5f61074c8261070a565b6107568185610714565b9350610766818560208601610724565b61076f81610732565b840191505092915050565b6107838161068a565b82525050565b5f8115159050919050565b61079d81610789565b82525050565b5f60a0820190506107b65f8301886106fb565b81810360208301526107c88187610742565b90506107d7604083018661077a565b6107e4606083018561077a565b6107f16080830184610794565b9695505050505050565b5f5ffd5b5f5ffd5b5f5ffd5b5f5f83601f84011261081c5761081b6107fb565b5b8235905067ffffffffffffffff811115610839576108386107ff565b5b60208301915083600182028301111561085557610854610803565b5b9250929050565b5f5f6020838503121561087257610871610628565b5b5f83013567ffffffffffffffff81111561088f5761088e61062c565b5b61089b85828601610807565b92509250509250929050565b5f819050919050565b5f6108ca6108c56108c084610630565b6108a7565b610630565b9050919050565b5f6108db826108b0565b9050919050565b5f6108ec826108d1565b9050919050565b6108fc816108e2565b82525050565b5f6020820190506109155f8301846108f3565b92915050565b7f506f737420646f6573206e6f74206578697374000000000000000000000000005f82015250565b5f61094f601383610714565b915061095a8261091b565b602082019050919050565b5f6020820190508181035f83015261097c81610943565b9050919050565b7f4e487b71000000000000000000000000000000000000000000000000000000005f52601160045260245ffd5b5f6109ba8261068a565b91507fffffffffffffffffffffffffffffffffffffffffffffffffffffffffffffffff82036109ec576109eb610983565b5b600182019050919050565b7f4e487b71000000000000000000000000000000000000000000000000000000005f52602260045260245ffd5b5f6002820490506001821680610a3b57607f821691505b602082108103610a4e57610a4d6109f7565b5b50919050565b7f436f6e74656e74207265717569726564000000000000000000000000000000005f82015250565b5f610a88601083610714565b9150610a9382610a54565b602082019050919050565b5f6020820190508181035f830152610ab581610a7c565b9050919050565b7f436f6e74656e7420746f6f206c6f6e67000000000000000000000000000000005f82015250565b5f610af0601083610714565b9150610afb82610abc565b602082019050919050565b5f6020820190508181035f830152610b1d81610ae4565b9050919050565b5f602082019050610b375f8301846106fb565b92915050565b5f81519050610b4b81610693565b92915050565b5f60208284031215610b6657610b65610628565b5b5f610b7384828501610b3d565b91505092915050565b7f4e487b71000000000000000000000000000000000000000000000000000000005f52604160045260245ffd5b5f819050815f5260205f209050919050565b5f6020601f8301049050919050565b5f82821b905092915050565b5f60088302610c057fffffffffffffffffffffffffffffffffffffffffffffffffffffffffffffffff82610bca565b610c0f8683610bca565b95508019841693508086168417925050509392505050565b5f610c41610c3c610c378461068a565b6108a7565b61068a565b9050919050565b5f819050919050565b610c5a83610c27565b610c6e610c6682610c48565b848454610bd6565b825550505050565b5f5f905090565b610c85610c76565b610c90818484610c51565b505050565b5f5b82811015610cb657610cab5f828401610c7d565b600181019050610c97565b505050565b601f821115610d095782821115610d0857610cd581610ba9565b610cde83610bbb565b610ce785610bbb565b6020861015610cf4575f90505b808301610d0382840382610c95565b505050505b5b505050565b5f82821c905092915050565b5f610d295f1984600802610d0e565b1980831691505092915050565b5f610d418383610d1a565b9150826002028217905092915050565b610d5a8261070a565b67ffffffffffffffff811115610d7357610d72610b7c565b5b610d7d8254610a24565b610d88828285610cbb565b5f60209050601f831160018114610db9575f8415610da7578287015190505b610db18582610d36565b865550610e18565b601f198416610dc786610ba9565b5f5b82811015610dee57848901518255600182019150602085019450602081019050610dc9565b86831015610e0b5784890151610e07601f891682610d1a565b8355505b6001600288020188555050505b505050505050565b828183375f83830152505050565b5f610e398385610714565b9350610e46838584610e20565b610e4f83610732565b840190509392505050565b5f6040820190508181035f830152610e73818587610e2e565b9050610e82602083018461077a565b94935050505056fea2646970667358221220f692eceeb3460802e0d32e90b600b19aa3d875e434874c62d2f345be6dc8bba064736f6c63430008210033","linkReferences":{}},"methodIdentifiers":{"likePost(address,uint256)":"48351529","postMessage(string)":"6630f88f","posts(address,uint256)":"5c538df3","profileRegistry()":"c9bb1a48"},"id":20}